:020000040800F2
:10000000A817002031030008C91D0008851C00083E
:10001000C51D0008611900088128000800000000C3
:10002000000000000000000000000000990200082D
:100030002F1A000800000000DD020008512400080B
:100040004B0300084B0300084B0300084B03000858
:100050004B0300084B0300084B0300084B03000848
:100060004B0300084B0300084B0300084B03000838
:10007000651900084B0300084B0300084B030008F8
:100080004B0300084B0300084B0300084B03000818
:100090004B0300084B0300084B0300084B03000808
:1000A0004B0300084B0300084B0300084B030008F8
:1000B0004B0300084B0300084B0300084B030008E8
:1000C0004B0300084B0300084B0300084B030008D8
:1000D0004B0300084B0300084B0300084B030008C8
:1000E000311A00084B0300084B0300080000000011
:1000F0000000000000000000000000000000000000
:1001000000000000000000004B0300084B03000843
:100110004B0300084B030008392500084B03000877
:100120004B0300084B0300084B0300084B03000877
:100130004B0300084B0300084B0300084B03000867
:100140004B0300084B0300084B0300084B03000857
:1001500000F002F800F090F80AA090E8000C824449
:100160008344AAF10107DA4501D100F085F8AFF226
:10017000090EBAE80F0013F0010F18BFFB1A43F085
:1001800001031847CC320000EC320000103A24BFC3
:1001900078C878C1FAD8520724BF30C830C144BFEC
:1001A00004680C607047000000230024002500262E
:1001B000103A28BF78C1FBD8520728BF30C148BFCA
:1001C0000B6070476E2900F0B581702900F0FF8246
:1001D000662903F0B980652903F0B680672903F02A
:1001E000B3806129AFF3008003681B0A28BF41F088
:1001F0008001692900F06281642900F05F8175291E
:1002000000F05C816F2900F08C82782900F0CB82AD
:10021000E92900F02782E42900F02482F52900F082
:100220002182EF2900F08982F82900F0CA82036850
:10023000DB0928BF41F08001632900F04C86732957
:1002400000F05186E32900F05C86F32900F0618616
:10025000002070471FB500F0ADFE04000020002113
:1002600003F05CF8401C60600020002103F040F8BF
:10027000E0601FBD10B510BD00F06FFE1146FFF726
:10028000E9FF02F01BFB00F047FF03B4FFF7F2FFAA
:1002900003BC00F08FFF0000224B19680868B0E82B
:1002A000F00F80F30988BFF36F8F4FF0000080F3E9
:1002B00011884EF00D0E70470000000006480068DF
:1002C000006880F3088862B661B6BFF34F8FBFF352
:1002D0006F8F00DF00BF00BF08ED00E0EFF3098083
:1002E000BFF36F8F0F4B1A6820E9F00F106008B54D
:1002F0004FF0BF0080F31188BFF34F8FBFF36F8FB4
:1003000002F07AFE4FF0000080F31188BDE808404B
:1003100019680868B0E8F00F80F30988BFF36F8FA1
:10032000704700BF24000020EFF3058070470000F5
:100330000948804709480047FEE7FEE7FEE7FEE779
:10034000FEE7FEE7FEE7FEE7FEE7FEE704480549B5
:10035000054A064B7047000085240008510100083B
:10036000A8110020A8170020A8130020A81300201F
:100370007CB51D4616460C00009001D02044401E5E
:10038000074B7B442A4669460190304600F0EBF863
:1003900005461CB10020694600F0F8F828467CBDEF
:1003A000110200004FF0000200B513469446964635
:1003B000203922BFA0E80C50A0E80C50B1F1200178
:1003C000BFF4F7AF090728BFA0E80C5048BF0CC026
:1003D0005DF804EB890028BF40F8042B08BF704784
:1003E00048BF20F8022B11F0804F18BF00F8012BF6
:1003F000704770477047704770B50446856900685C
:10040000C10601D5302600E02026C00707D070BD08
:10041000D4E9012130469047206A401C20626D1EBD
:10042000F6D570BD70B5044685690078C00707D160
:1004300070BDD4E9012120209047206A401C206231
:100440006D1EF6D570BD09684A0501D540B27047EA
:10045000C905FCD500B2704709684A0501D5C0B28C
:100460007047C905FCD580B2704770B50C4605468B
:10047000012A05D02878800600D5EA69002302E029
:10048000012305E05B1C934202D2E05C0028F9D115
:10049000A869E618C01AA861286A18442862284684
:1004A000FFF7AAFF04E0D5E9012114F8010B9047FA
:1004B000B442F8D32846FFF7B5FF70BD2DE9F041EF
:1004C0000646002410687529314616A510D0FFF79E
:1004D000BAFF002802DA404213A507E031688A0714
:1004E00001D512A502E0490704D511A5012401E0B8
:1004F000FFF7B2FF00210A2206F1240709E0B0FB52
:10050000F2FCB0FBF2F302FB1C00303078541846CA
:10051000491C0028F3D123462A463046BDE8F04165
:1005200000F069BA000000002D0000002B00000060
:100530002000000011680268006A530501D50870A8
:100540000AE0D30501D5088006E0130603D5C217DB
:10055000C1E9000200E008600120704701694A1CFF
:1005600002610878704700B58FB0CDE901310021F4
:10057000059105497944CDE903101146684600F01C
:1005800031F90FB000BD0000E5FFFFFF0A6802F877
:10059000010B0A607047D1E900239A4202D2531C32
:1005A0000B601070704700002DE9FF5F15468A460A
:1005B0000446DFF8AC80F8440027D8E900103E4636
:1005C000CDE9001010E03AF816106A4602A800F0D3
:1005D000A4FC411C07D02178890603D5E2693918AB
:1005E00091420DD80744761C2078800602D5E06938
:1005F000B84205DDAE42E6DB3AF816000028E2D14B
:10060000A069C01BA0612046FFF7F6FED8E90010E4
:10061000CDE90010002017E03AF818106A4602A849
:1006200000F07BFCB0F1FF3F81460BD000250DF1BF
:10063000080B05E0D4E901211BF8050090476D1C6B
:100640004D45F7D308F10100B0428046E4DB206A53
:10065000384420622046FFF7E5FEBDE8FF9F00001A
:10066000BE2D00002DE9F0418046D21D22F0070288
:100670000025D2E90002F52915A614D0011E72F159
:10068000000106DA0023D0EB030063EB020211A69F
:1006900008E0D8F800108B0701D50FA602E0490743
:1006A00001D50EA601251146002408F1240704E017
:1006B00000F05CF930323A55641C50EA0102F7D17F
:1006C0002B46324621464046BDE8F04100F093B942
:1006D000000000002D0000002B00000020000000A2
:1006E00030B4002100F1240408E002F00705D2082C
:1006F000303542EA4372DB086554491C52EA03056F
:10070000F3D10468002310A2250707D5A40600D45E
:1007100021B1C46901230DA2641EC46130BC00F084
:100720006AB910B5044621461068FFF795FE0246E7
:100730002046BDE810400023D2E7D21D22F0070179
:10074000D1E90023CCE700000000000030000000E9
:10075000F0B40D460188090502D5214C7C4402E025
:100760001F4C7C440E34002100F1240608E002F006
:100770000F071209E75D42EA03721B097754491C0F
:1007800052EA0307F3D102780023120704D5702D33
:1007900006D009B1022311342246F0BC00F02BB977
:1007A00001231034F8E770B504460D462146106861
:1007B000FFF752FE024629462046BDE8704000235E
:1007C000C6E7D21D22F00703D3E90023C0E7036880
:1007D000126843F0200303600823C3610023B7E7D6
:1007E000202C00002DE9F05F894604464FF0000AF6
:1007F000DFF874B1FB44C0F820A02046E1688847C8
:10080000002874D0252806D0D4E901219047206A19
:10081000401C2062F1E700265F462046E1688847D9
:100820002028054607DB312D05D2781910F8200C59
:1008300008B10643F1E7B00701D526F00406C4F875
:100840001CA00027C4F818A02A2D09D0284602F0C1
:100850002DF838B304EB8708303DC8F8185019E07C
:1008600059F8041B204604EB87029161E168884730
:10087000012F054618D1E069002820DA26F020066D
:100880001DE0D8F8180000EB800005EB4000303880
:10089000C8F818002046E1688847054602F006F8C7
:1008A0000028EED1012F0AD02E2D08D12046E16874
:1008B00088477F1C0546022F46F02006C4DBA0694E
:1008C000002803DA404246F00106A061F00701D09B
:1008D00026F010066C2D0BD0682D09D04C2D39D088
:1008E0006A2D35D0742D35D07A2D33D016E038E00E
:1008F000E1682F4620468847B842054609D16C2F4B
:1009000026D04FF48060E1680643204688470546BC
:1009100004E06C2F1AD04FF4807006430DB3A5F19C
:100920004100192802D8203546F400664A46294677
:10093000204626604E46FFF745FC80B101280BD0CB
:10094000F61D26F0070000F1080956E74020E4E70D
:100950008020D8E70020D6E706F104094DE72846B5
:1009600052E7206ABDE8F09FB02B000030B5B0F12F
:100970000A024FEA900E71F100034EEA817EB0EB5D
:100980000E0061EB91014FEA101E4EEA017E10EB62
:100990000E0041EB11114FEA102E4EEA016E10EBE2
:1009A0000E0041EB11214FEA104E4EEA014E10EBC2
:1009B0000E0041EB1141401841F100014FEAD00017
:1009C00040EA41704FEAD10110EB80054FEA810403
:1009D00044EA907444EB01046D1944EB0404521B87
:1009E000A3414FF0000348BF0A3200D530BD401C80
:1009F00041F1000130BD2DE9F0470D469946924680
:100A0000044600F124080168880604D5E06921F055
:100A10001001216000E00120A84201DD471B00E039
:100A20000027A1697A1902EB0900081AA061207851
:100A3000C00602D42046FFF7DFFC002608E0D4E918
:100A400001211AF806009047206A401C761C20629B
:100A50004E45F4DB2078C0060AD52046FFF7CCFCD3
:100A600006E0D4E9012130209047206A401C206232
:100A7000381EA7F10107F4DC07E0D4E9012118F8DA
:100A800005009047206A401C2062281EA5F1010540
:100A9000F3DC2046FFF7C6FC2078000602D50220D2
:100AA000BDE8F0870120FBE770472DE9FF4F0C46BA
:100AB0001E464FF0FF378BB0D2E90001DDF86080B1
:100AC0000A908A46C1F30A5505B93D4600210846F9
:100AD0004FF00000BAF1000F00F4400005DA00EB1F
:100AE00080004FF4400101EA50004FEA9059B9F1FB
:100AF000010F00DDB9460A9850EA4A000ED044F6CC
:100B00001050A5F2FF3545432F14B8F1000F1ED049
:100B10007542291E1EDDC9F100021CE0B8F1010F6B
:100B20004FF0000001D0302103E0F24305E02154F2
:100B3000401CB042FBDB30460022002121540B99BF
:100B4000C1F80880C1E900200FB0BDE8F08FBD1BDF
:100B50006D1CDEE74A4600DA694206A800F06EFA2C
:100B600006AB93E8070003AB83E8070050460A99F9
:100B700000F027FB8DE80700A0F500501F3800901B
:100B80000398002D09DD42F21F014A46084403A9DB
:100B90000390684600F086FD08E0A0F500504A4644
:100BA0001F3803A90390684600F090FD8DE8070008
:100BB0000004000C03D04FF0FF30410800E0104665
:100BC000B8F1000F03D00022009215461EE0751EFA
:100BD00005D4FFF7CBFE303262556D1EF9D5B34612
:100BE0000122084302D000227F1C04E02078302834
:100BF00001D100227F1E002A099786D01DE0112D09
:100C000007DAFFF7B3FE303262556D1C50EA01027D
:100C1000F5D1084302D00098C8B10EE00021681E4B
:100C200005E0235C625C63542254401E491C8142EF
:100C3000F7DBAB46A81B401E0990002004F80B0010
:100C40000B98099AC0F80880C0E9002B7CE71126B0
:100C50004FF0000859E72DE9F04F88460446D21DB1
:100C600022F0070191B0D1E90001CDE90A0101F0BC
:100C700009FE02460B98C00F01D02D2007E0206826
:100C8000810701D52B2002E0202101EAC000032AC0
:100C9000099001D0072A05DB03464146204600F0B3
:100CA0008DF90BE12078800601D5E06900E006208F
:100CB000B8F1650F814606D0B8F1660F18D0B8F1CB
:100CC000670F70D131E00020B9F1110F009001DB06
:100CD000112301E009F101030AAA01A90CA8FFF7F9
:100CE000E4FEDDE90C70002609F10105834647E0CA
:100CF00001204B4600904FF000470AAA01A90CA81A
:100D0000FFF7D3FEDDE90DB00C995D46002610B962
:100D100009F101000D18B9EB050003D4C0F1FF364D
:100D200009F10105A5EB09002BE0B9F1010F01DA8A
:100D30004FF001090020B9F1110F0090484601DD84
:100D4000112300E003460AAA01A90CA8FFF7ADFE93
:100D5000DDE90C704D4600268346207800070AD452
:100D6000AB4500DA5D4601A8012D04DD411911F8FB
:100D7000011C302907D04F4502DA17F1040F04DABD
:100D8000012082460FE06D1EEEE7002F02DCED1B16
:100D90003E4403E0781CA84200DD7D1CB81B00F136
:100DA000010A4FF000472078000703D4AA4501DB71
:100DB0004FF0FF3A0021B7F1004F0DF143088DF8D5
:100DC000431024D002202B23002F01DA7F422D2351
:100DD0000A21021EA0F1010000DC5FB197FBF1FCCB
:100DE00097FBF1F201FB1C7C17460CF1300C08F864
:100DF00001CDEEE7A8F1010003702188090501D5B6
:100E0000452100E06521A0F1010800F8011C0998C6
:100E10000FA9A1EB0807FF1D00B10120411901EB4B
:100E2000EA70A1693844081A401EA0612078C00603
:100E300002D42046FFF7E0FA099828B1D4E901214D
:100E40009047206A401C20622078C00622D52046A8
:100E5000FFF7D2FA1EE0002E04DBB34502DD01A845
:100E6000805D00E03020D4E901219047206A401CD9
:100E70002062761CAAF101005FEA000A0AD100F0A4
:100E800099F8C0680168405CD4E901219047206A64
:100E9000401C2062281EA5F10105DCDC07E0D4E936
:100EA000012118F8010B9047206A401C2062381E6F
:100EB000A7F10107F3DC2046FFF7B4FA032011B0D5
:100EC00043E610B5436913B1AFF3008001E0FFF7CB
:100ED000CCFA012010BD127800F124010A70002222
:100EE0004A700122EDE711684FF0FF32E9E710B5D3
:100EF000436913B1AFF3008001E0FFF755FB012018
:100F000010BD128800F1240182840022C2840122D3
:100F1000EDE711684FF0FF32E9E770B516460C4671
:100F2000054600F03FF8036893F80101012806D058
:100F3000FF2C0FD8185D68B101202C7070BDD3F85C
:100F400007013246214603F2071303442846BDE851
:100F5000704018474FF0FF3070BD754600F0E6F85E
:100F6000AE4605006946534620F00700854618B096
:100F700020B5FFF7EBF9BDE820404FF000064FF039
:100F800000074FF000084FF0000B21F00701AC46BE
:100F9000ACE8C009ACE8C009ACE8C009ACE8C009DD
:100FA0008D46704710B500F005F8001D10BD00BF5C
:100FB0006D23000000487047681100202DE9F041C2
:100FC0001F46044603260168072A01F4006004DB7B
:100FD00008B116A505E016A503E008B115A500E0C7
:100FE00015A521F010002060A069C01EA0610FB1FE
:100FF000401EA0612046FFF7FFF94FB1D4E901215F
:1010000038469047206A401C2062C01C206206E0DF
:10101000206AFAE7D4E9012115F8010B9047761E02
:10102000F8D22046FFF7FEF9BDE8F0814E414E00B0
:101030006E616E00494E4600696E66002DE9F0470C
:10104000814616468AB0334878440DC88DE80D00B5
:1010500030487844801C03AC0DC884E80D0041F68C
:101060009B300844372190FBF1F290FBF1F5A5F19C
:10107000800501FB12041B3C02D56442012000E004
:101080000020DFF890A080460027FA44AAF1BE0AAB
:101090000DE0E00709D03246684607EB47010AEB4E
:1010A000810100F013FB8DE8070064107F1C002C09
:1010B000EFD1184F7F44AC3F18E0E80714D007EB9E
:1010C00004100DF1180A90E80E008AE80E00C068BE
:1010D000F04201D198190890324606A903A800F001
:1010E000F5FA03AB83E807006D10641C002DE4D112
:1010F00032466946B8F1000F03A802D000F0D2FAD8
:1011000001E000F0E3FAC9E90001C9F808200AB0DB
:10111000BDE8F087EC23000010B50446AFF3008073
:101120002046BDE81040FFF7B0B800000048704707
:10113000481100204FF0013C50F8042B51F8043BBB
:101140009A4221D1A2EB0C03934313EACC1317D19B
:1011500050F8042B51F8043B9A4215D1A2EB0C0332
:10116000934313EACC130BD150F8042B51F8043BF2
:101170009A4209D1A2EB0C03934313EACC13DBD0C0
:101180004FF00000704700BFD01A01BAB1FA81F1E8
:1011900001F0180122FA01F0CB40C1F12001DBB2CD
:1011A000C0B2C01A2CFA01F3D11A914311EAC3114B
:1011B000E6D1704701491820ABBEFEE726000200C9
:1011C00070475FEA400C08BF91F0000F4FEA8C2394
:1011D0004FEAC12243EA51514FEA1C5018BF00F5B3
:1011E000F0404FEA300018BF41F000415FEA6C5C0C
:1011F00000F02980BCF1FF3F08BF40F080407047FD
:10120000130C06BF12044FF0100C4FF0000C130E1D
:1012100004BF12020CF1080C130F04BF12010CF1F1
:10122000040C930F04BF92000CF1020CD30F04BF07
:1012300052000CF1010C11464FF00002A0F11F000A
:10124000A0EB0C00704711F0004F08BF704731F061
:1012500000413FF4D5AF0B0C06BF09044FF0100C52
:101260004FF0000C0B0E04BF09020CF1080C0B0F21
:1012700004BF09010CF1040C8B0F04BF89000CF1B1
:10128000020CCB0F04BF49000CF1010CCCF1200380
:10129000A0EB0C0022FA03F302FA0CF241EA03017C
:1012A00000F10100704720F07F4C80EA030023F03A
:1012B0007F47ACEB070303F57C5300F0004003F1DC
:1012C000FF032DE980494FEA154B09B44FEA144357
:1012D00025EA0B4E24EA03480FF2042606EB1327F7
:1012E00049083E785FEA320203FB0667C7F500074C
:1012F00007FB06F64FEA54374FEAD64606F10206D8
:1013000007FB066CCCF1005C4FEA1C472CEA074C4B
:1013100007FB06F40CFB06F504EB15464FEA9616A0
:1013200034BF00204FF000404FEAD13706FB07FCE6
:101330004FEA1C4C0CFB0BF7D21B03FB0CF761EBC9
:1013400007010CFB0EF7B0EB074072EB17420CFBEA
:1013500008F734BFA2EB0742B2EB074261EB17413B
:101360004FEA0C444FEA910706FB07FC4FEA1C4C7E
:101370000CFB0BF7B0EBC74072EB573203FB0CF7DB
:1013800034BFA2EBC742B2EBC74261EB57310CFB53
:101390000EF7B0EBC70072EB57720CFB08F734BFC7
:1013A000A2EBC702B2EBC70261EB5771039F4FEA92
:1013B000816141EA921104EBCC044FEAD1374FEA44
:1013C000826206FB07FC42EA90124FEA80604FEA15
:1013D0001C4C0CFB0BF7D21B03FB0CF761EB07015A
:1013E0000CFB0EF7B0EB074072EB17420CFB08F753
:1013F00034BFA2EB0742B2EB074261EB17414FEA61
:101400008C554FEA910704EB9C2406FB07FC4FEA3E
:101410001C4C0CFB0BF7B0EBC74072EB573203FBD5
:101420000CF734BFA2EBC742B2EBC74261EB5731B6
:101430000CFB0EF7B0EBC70072EB57720CFB08F712
:1014400034BFA2EBC702B2EBC70261EB577115EBD9
:101450004C254FEA816141EA92114FEA82624FEADC
:10146000D13742EA901206FB07FC44F100044FEA30
:1014700080604FEA1C4C0CFB0BF7D21B03FB0CF7F4
:1014800061EB07010CFB0EF7B0EB074072EB174264
:101490000CFB08F734BFA2EB0742B2EB074261EB4B
:1014A000174115EB1C154FEA813141EA92414FEA91
:1014B000823242EA90424FEA80304FEA0C7644F1A1
:1014C000000448EA03434EEA0B484FF0000EB2EB2B
:1014D000080C71EB030724BF624639464EEB0E0E33
:1014E0004FF0000B0018524149414BEB0B0BB2EB94
:1014F000080C71EB03077BF1000B24BF62463946F1
:101500004EEB0E0E4FF0000B0018524149414BEBD1
:101510000B0BB2EB080C71EB03077BF1000B24BF44
:10152000624639464EEB0E0E51EA020718BF46F0EE
:10153000010616EB0E7655F1000254F1000103D5B9
:10154000BDE88901BDE80088BDE88901BDE8004823
:10155000B619524141EB0101A3F1010370478080AC
:101560007F7E7D7C7B7A79787776767574737271FD
:1015700071706F6E6E6D6C6C6B6A6A6968686766B5
:1015800066656464636362616160605F5F5E5E5D47
:101590005D5C5C5B5B5A5A595958585757565655BB
:1015A00055555454535352525251515050504F4F1D
:1015B0004F4E4E4D4D4D4C4C4C4B4B4B4A4A4A496D
:1015C00049494848484747474746464645454544B0
:1015D0004444444343434342424242414141002B3D
:1015E00026D4770021D01CB54FEA370703B44FF05B
:1015F00010004FF010014FF000000FBCBDE810408C
:101600000BF1010BBBF1010F08BF5FEA170722BF07
:1016100012F1010211F101014FF0004143F1000309
:1016200000F0004043EA00007047F9D35708DAE7BA
:1016300046EA064613F1400F4FEA16461FDD13F146
:10164000200FDFBF16430A46002120335B42C8D07B
:10165000C3F1200746EA064602FA07F74FEA1646A4
:1016600046EA0706C3F1200722FA03F201FA07F758
:1016700021FA03F14FF0000342EA0702B1E746EA1C
:10168000020646EA06464FEA164646EA0106BCBF8F
:1016900046EA0646360C4FF000034FF000024FF0CA
:1016A00000019EE72DE9C048934630B491E8380028
:1016B00007C831EA400C48BF34EA430C03D5FFF7B2
:1016C000F2FDFFF78CFFF0BCBDE800882DE9C048B3
:1016D000934630B491E8380007C810F0804F08BF37
:1016E00013F0804F03D100F005F8FFF778FFF0BC4E
:1016F000BDE8008820F07F4780EA030023F07F4C9C
:1017000007EB0C03A3F57C5300F00040A3F1FE03AC
:1017100092F0000F00F0B38095F0000F00F077809A
:101720002DE901494FEA11404FEA144621EA0048E9
:1017300000FB06FC24EA064708FB06F607FB08F850
:1017400000FB07F718EB06484CEB164C4FEA124B20
:1017500018EB07484FEA15464CEB174022EA0B4EB0
:101760000BFB06FC25EA06470EFB06F607FB0EFE02
:101770000BFB07F71EEB064E4CEB164C4FF000062A
:101780001EEB074E4CEB174B18EB0B0840F100001B
:1017900018EB0E0B58EB000840F100008F1A4FF0C9
:1017A00000013CBFC943661B14BFB5EB040C00210C
:1017B0003CBFC943F61B4FEA17444EEA8E0E27EA98
:1017C00004454FEA1C4704FB07622CEA074C05FB63
:1017D00007F70CFB05F604FB0CFC16EB074642EB87
:1017E000174216EB0C4642EB1C421BEB060658EB6D
:1017F0000202414146EA9E0601D5BDE80189B619BB
:10180000524141EB0101A3F10103BDE801894FEA17
:1018100014454FEA114724EA054621EA074C05FB27
:1018200007F406FB07F70CFB06F105FB0CFC11EBBC
:10183000074144EB17444FEA124711EB0C4144EBCC
:101840001C4422EA074C05FB07F206FB07F70CFBDA
:1018500006F605FB0CFC16EB074642EB174216EBAF
:101860000C4642EB1C456A1854F1000148BF704712
:10187000B619524141EB0101A3F10103704795F004
:10188000000F37D04FEA11424FEA144721EA0246CF
:1018900024EA074C02FB07F106FB07F70CFB06F4F2
:1018A00002FB0CFC14EB074441EB17414FEA1547D0
:1018B00014EB0C4441EB1C4125EA074C02FB07F5F5
:1018C00006FB07F70CFB06F602FB0CFC16EB0746C3
:1018D00045EB174516EB0C4645EB1C42121951F12E
:1018E000000148BF7047B619524141EB0101A3F115
:1018F000010370474FEA14454FEA114724EA0546B1
:1019000021EA074C05FB07F106FB07F70CFB06F283
:101910004FF0000605FB0CFC12EB074241EB1741B0
:1019200012EB0C4251EB1C4148BF7047921841EB3F
:101930000101A3F10103704710B500F0CBF900F0ED
:101940000FFE00F0ABFE00F09FF9044908688047E5
:1019500002494868804700F038FA10BD04000020B2
:1019600000BFFEE710B5202000F024F8012804D1C4
:1019700002490870202000F003F810BD000000208C
:1019800000F0805111B10349086001E0024948604C
:1019900070470000040402400000024021B10268C8
:1019A00042F00102026004E002684FF6FE731A4042
:1019B0000260704701460020002201F0805313B1FD
:1019C000054B1A6801E0054B1A6802EA01030BB1E6
:1019D000012000E0002070470004024000000240A7
:1019E0001AB103680B43036002E003688B43036092
:1019F000704710B50022026847F6F0739A430C6AEC
:101A00008B6823430C6923434C6923438C6923432C
:101A1000CC6923434C6A23438C6A23431A430260F4
:101A2000CB6843600B6883604B68C36010BD704730
:101A300010B54FF4005000F00FF830B1082000F05E
:101A400093F94FF4005000F001F810BD014908600F
:101A50007047000014040140014600200022074B9B
:101A60001B6803EA0102054B14331B680B4013B1DA
:101A70000AB1012000E0002070470000000401408E
:101A8000002123498279002A3AD00A461268036865
:101A90009A430B461A600A1D126803689A430B1D8D
:101AA0001A60027911440A6803681A430A60184AE6
:101AB0000832126803689A43154B08331A601A1DDE
:101AC000126803689A43124B0C331A604279102A49
:101AD0000ED11A1F126803681A430D4B08331A609F
:101AE0001A1D126803681A43094B0C331A600DE083
:101AF0000749427911440A6803681A430A6005E0FD
:101B0000027911440A6803689A430A60704700002A
:101B10000004014030B500228B071C0F0F2303FA8D
:101B200004F20B4B8C1053F824309343084C8D1067
:101B300044F8253023468C1053F824308C07240FAA
:101B400000FA04F42343024C8D1044F8253030BDD4
:101B5000080001402DE9F041024600250026002042
:101B600000230024002791F803C00CF00F0591F822
:101B700003C00CF0100CBCF1000F03D091F802C0B0
:101B80004CEA050591F800C0BCF1000F31D0146893
:101B900000202BE04FF0010C0CFA00F3B1F800C06C
:101BA0000CEA03069E4220D183004FF00F0C0CFA82
:101BB00003F7BC4305FA03FC4CEA040491F803C0A4
:101BC000BCF1280F06D14FF0010C0CFA00FCC2F852
:101BD00014C00AE091F803C0BCF1480F05D14FF0E2
:101BE000010C0CFA00FCC2F810C0401C0828D1D32C
:101BF0001460B1F800C0BCF1FF0F34DD5468002060
:101C00002EE000F1080C4FF0010808FA0CF3B1F8CF
:101C100000C00CEA03069E4221D183004FF00F0C56
:101C20000CFA03F7BC4305FA03FC4CEA040491F8F0
:101C300003C0BCF1280F05D100F1080C08FA0CF81C
:101C4000C2F8148091F803C0BCF1480F07D100F12D
:101C5000080C4FF0010808FA0CF8C2F81080401C7C
:101C60000828CED35460BDE8F08102460020D36836
:101C70000B400BB1012000E000207047416170472C
:101C80000161704700BFFEE70EB50121112000F091
:101C900025F94FF40050ADF8080028208DF80B000E
:101CA00002A90B48FFF756FF0D210220FFF732FF74
:101CB0004FF40050009000208DF804000C208DF8A7
:101CC000050001208DF806006846FFF7D9FE0EBD1D
:101CD0000010014008B50121202000F0FFF89C20F1
:101CE000ADF8000010208DF8030003208DF80200ED
:101CF00069460448FFF72EFF9C210248FFF7BEFF0C
:101D000008BD00000014014070B5054600240EE037
:101D10000120A040284040B1064A02EBC40291884D
:101D2000044A52F83400FFF7A9FF601CC4B2042C27
:101D3000EED370BD4C33000870B5054600240EE0AC
:101D40000120A040284040B1064A02EBC40291881D
:101D5000044A52F83400FFF793FF601CC4B2042C0D
:101D6000EED370BD4C33000870B50646002423E066
:101D70000120A0403040E8B1114A02EBC402918832
:101D80000F4A52F83400FFF770FF05464DB10C4A78
:101D900002EBC40291880A4A52F83400FFF76EFF42
:101DA00008E0074A02EBC4029188054A52F8340061
:101DB000FFF766FF601CC4B2042CD9D370BD0000CD
:101DC0004C33000800BFFEE7704708B54FF4C06011
:101DD00000F05AF828208DF8000000208DF801004E
:101DE0008DF8020001208DF80300684600F014F819
:101DF0004FF4A06000F048F836208DF80000002075
:101E00008DF801008DF8020001208DF8030068466E
:101E100000F002F808BD000070B5002100230F2279
:101E2000C47804B3154C246804F4E064C4F5E06499
:101E3000210AC1F10403CA40447804FA03F184780A
:101E40001440214309010E4C0678A155047804F092
:101E50001F050124AC4005786D11AD0005F1E025AA
:101E6000C5F8004109E0047804F01F050124AC40E6
:101E7000044D0678761145F8264070BD0CED00E063
:101E800000E400E080E100E002490143024A116001
:101E9000704700000000FA050CED00E029B1064A89
:101EA00052690243044B5A6104E0034A5269824377
:101EB000014B5A61704700000010024029B1064AE8
:101EC000D2690243044BDA6104E0034AD2698243D7
:101ED000014BDA61704700000010024029B1064A48
:101EE00092690243044B9A6104E0034A9269824377
:101EF000014B9A6170470000001002402DE9F0414B
:101F000000210022002500230026002400278C4603
:101F1000DFF86081D8F8048008F00C0121B10429B1
:101F200007D0082959D109E0DFF84C81C0F80080BA
:101F300058E0DFF84881C0F8008053E0DFF83481D2
:101F4000D8F8048008F47012DFF82881D8F80480EB
:101F500008F48035920C0D2A01D0921C00E0062274
:101F600035B9DFF81C8102FB08F8C0F8008033E0C7
:101F7000DFF80081D8F82C8008F48036DFF8F48090
:101F8000D8F82C8008F00F0808F1010446B9DFF8F2
:101F9000EC80B8FBF4F808FB02F8C0F800801BE006
:101FA000DFF8D080D8F82C80C8F3031808F10107B7
:101FB000DFF8C080D8F82C80C8F3032808F1020CA1
:101FC000DFF8B880B8FBF7F808FB0CF8B8FBF4F8BA
:101FD00008FB02F8C0F8008004E0DFF89C80C0F83D
:101FE000008000BF00BFDFF88C80D8F8048008F0C4
:101FF000F0010909DFF88C8018F80130D0F8008072
:1020000028FA03F8C0F80480DFF86880D8F8048064
:1020100008F4E061090ADFF86C8018F80130D0F8A4
:10202000048028FA03F8C0F80880DFF84880D8F860
:10203000048008F46051C90ADFF8488018F80130BC
:10204000D0F8048028FA03F8C0F80C80DFF8248068
:10205000D8F8048008F44041890BDFF82C8018F888
:102060000130D0F80C80B8FBF3F8C0F81080BDE860
:10207000F08100000010024000127A0040787D01DB
:1020800000093D00100000202000002010B502488B
:1020900000F0E2F810BD00006C33000810B50248F3
:1020A00000F006F910BD00006C33000870B504465E
:1020B0000D461646034B32462946204600F006F9E7
:1020C00070BD00006C33000821B1028842F040026C
:1020D000028004E002884FF6BF731A400280704706
:1020E00070B58CB006460D46144601210846FFF730
:1020F000D5FE00212C48FFF751FC00212A48143856
:10210000FFF74CFC4FF4C060FFF7BEFE0C208DF8CB
:10211000000000208DF801008DF8020001208DF8EC
:1021200003006846FFF778FE2048019002961020D1
:1021300003900494002005908020069000200790D2
:10214000089009904FF480500A9000200B9001A94C
:102150001548FFF74EFC01211348FFF71FFC1348F9
:102160000190029500200390049405908020069031
:1021700000200790089009904FF480500A900020AA
:102180000B9001A908481438FFF733FC01210648D9
:102190001438FFF703FC0122022103481438FFF72B
:1021A0001FFC0CB070BD0000300002400C3001403C
:1021B00010B50022028802F441520B884C88234358
:1021C0008C882343CC8823430C8923434C892343A5
:1021D0008C892343CC8923431A430280838B4FF29B
:1021E000FF74234083830B8A038210BD08B5E0206F
:1021F000ADF8000018208DF8030003208DF80200D0
:1022000069461348FFF7A6FC4FF40070ADF80000D4
:1022100010208DF8030003208DF8020069460D4858
:10222000FFF798FC4FF400710A48FFF729FD1020D2
:10223000ADF800008DF8030003208DF80200694618
:102240000348FFF787FC10210148FFF719FD08BD7F
:1022500000080140000C014010B586B00446002083
:10226000ADF804004FF48270ADF806000020ADF820
:102270000800ADF80A00ADF80C004FF40070ADF89E
:102280000E003820ADF810000020ADF81200072035
:10229000ADF8140001A90548FFF78AFF0121206865
:1022A000FFF712FF002006B010BD00000040014003
:1022B00010B5044601210C20FFF710FE0121A06893
:1022C000FFF70CFEFFF792FF002010BD2DE9F04153
:1022D00005460E4617461C4605B906B11FB96FF0F4
:1022E0000400BDE8F0813A4631462846FFF7F8FE83
:1022F0002068808840F003002168888000BF0B4878
:1023000000780028FBD000200849087000BF206832
:10231000008900F0800021680989012222EA510128
:1023200008430028F3D100BFDBE7000000000020D5
:1023300010B500F001F810BD0CB500200190009020
:102340003F48006840F480303D49086000BF3C4889
:10235000006800F4003000900198401C0190009843
:1023600018B90198B0F5A06FF1D13548006800F4B4
:10237000003010B10120009001E000200090009892
:1023800001285CD12F48006840F010002D490860FA
:102390000846006820F0030008600846006840F026
:1023A00002000860264840682549486008464068A1
:1023B00048600846406840F4806048600846C06A4B
:1023C000214908401E49C8620846C06A1F4908439F
:1023D0001B49C8620846006840F08060086000BF82
:1023E0001748006800F000600028F9D014484068E1
:1023F00020F47C10124948600846406840F4E81018
:1024000048600846006840F08070086000BF0C48D3
:10241000006800F000700028F9D00948406820F0FA
:102420000300074948600846406840F002004860E1
:1024300000BF0348406800F00C000828F9D10CBD2B
:10244000001002400020024000F0FEFF44060100A0
:1024500010B500BFBF2080F31188BFF34F8FBFF3CB
:102460006F8F00BF00F042FE18B14FF0805004495A
:10247000086000BF002080F3118800BF10BD00007D
:1024800004ED00E010B51648006840F00100144962
:1024900008600846406813490840114948600846EA
:1024A0000068114908400E4908600846006820F499
:1024B000802008600846406820F4FE004860084616
:1024C000006820F0A05008604FF47F008860002072
:1024D000C862FFF72DFF4FF000600449086010BD8F
:1024E000001002400000FFF0FFFFF6FE08ED00E0E4
:1024F00012E00220FFF720FC4FF4FA7000F0C2FC5B
:102500000220FFF701FC4FF4FA7000F0BBFC03A2BD
:10251000022104A000F086F9EBE700004849414899
:102520004941000041626E65723A2025642D2D2DCF
:102530002D2D2D2D25730A0010B50121064800F020
:1025400040F840B10121044800F02CF8034800682D
:10255000401E0249086010BD001000407C000020B1
:102560000EB501211020FFF7A9FC6320ADF804008F
:1025700040F2CF20ADF800000020ADF80600ADF825
:1025800002006946064800F037F801221146044867
:1025900000F028F80121024800F007F80EBD000005
:1025A00000100040CA430282704721B1028842F005
:1025B0000102028004E002884FF6FE731A40028096
:1025C000704730B50246002000230024158A05EA32
:1025D0000103958905EA010413B10CB1012000E063
:1025E000002030BD1AB183890B43838102E08389C7
:1025F0008B43838170470000002202881D4B984264
:102600000ED01D4B98420BD0B0F1804F08D01B4B21
:10261000984205D01A4B984202D01A4B984204D1E6
:102620004FF68F731A404B881A43174B984207D0C6
:10263000164B984204D04FF6FF431A40CB881A43FA
:1026400002808B8883850B8803850A4B98420BD0C8
:10265000094B984208D00E4B984205D00D4B98423A
:1026600002D00D4B984201D10B7A0386012383825D
:1026700070470000002C014000340140000400407D
:1026800000080040000C0040001000400014004012
:1026900000400140004401400048014000B585B0C1
:1026A000012144F20400FFF719FC4FF40070ADF86B
:1026B000100018208DF8130003208DF8120004A9D3
:1026C0001348FFF747FA4FF48060ADF8100004207C
:1026D0008DF8130004A90E48FFF73CFA4FF4E130DF
:1026E00000900020ADF80400ADF80600ADF8080039
:1026F0000C20ADF80A000020ADF80C006946054832
:1027000000F024F80121034800F006F805B000BDF0
:10271000000801400038014021B1828942F4005292
:10272000828104E082894DF6FF731A4082817047EE
:1027300002460020B1F5007F00D100BF13880B4096
:102740000BB1012000E00020704700002DE9F047A8
:1027500086B005460E460024A24600BFA1460027CB
:10276000B08900B100BF2F462C8A4CF6FF700440A0
:10277000F08804432C82AC894EF6F3100440B088F4
:1027800031890843718908430443AC81AC8A4FF610
:10279000FF400440B0890443AC8201A8FFF7AEFBC0
:1027A0001F48874202D1DDF810A001E0DDF80CA03F
:1027B000A88900F4004040B10AEBCA0000EB0A10FF
:1027C00031684900B0FBF1F807E00AEBCA0000EB02
:1027D0000A1031688900B0FBF1F86420B8FBF0F012
:1027E00004012009642101FB1089A88900F400403C
:1027F00040B1322000EBC900B0FBF1F000F007005F
:10280000044308E0322000EB09106421B0FBF1F032
:1028100000F00F0004432C8106B0BDE8F0870000F3
:10282000003801400FB430B589B0202101A8FDF770
:10283000B9FD00250DA800901E2101A8009B0C9A4F
:10284000FDF796FD05460020009000240CE001A84D
:10285000015D084800F010F800BF40210548FFF76F
:1028600067FF0028F9D0641CAC42F0DB09B030BC33
:102870005DF814FB00380140C1F308028280704704
:1028800000BFFEE7490050EAC12018BF04204A0DEE
:1028900018BF40F0010040F2FF72B2EB515F08BF79
:1028A00040F00200012808BF0520704730380A2890
:1028B00001D2012070470020704700001CB50024A1
:1028C000FFF73AF80020022103468022CDE90010EC
:1028D00006A1084800F0DAFB0446012C01D000BF35
:1028E000FEE700F04FFB00BFFEE700004D41494E00
:1028F00000000000AD2D00082DE9F04105460E4610
:102900001C4807681C480068001D00F005FA50B913
:102910001948006890F82C10012088401749096870
:10292000814316480160681C38B936B11248016805
:10293000091D134800F02EFA1AE07C190E480068B1
:102940004460BC4207D20C480168091D0D4800686C
:1029500000F006FA0CE008480168091D0A48006802
:1029600000F0FEF909480068844201D2074804607B
:10297000BDE8F08138000020240000203C00002049
:102980000C0100202C000020280000205400002012
:1029900010B5044600F028FA23480068401C22497C
:1029A00008602248006840B9204804600846006872
:1029B00001280DD100F0E8F80AE01D48006838B998
:1029C0001A480068C06AE16A884201D81748046062
:1029D00018480068401C1749086094F82C10012022
:1029E000884015490968084313490860E16A01EB0A
:1029F0008101124A02EB8100211D00F0CBF900F0A9
:102A000005FA0B48006868B108480068C06AE16AC6
:102A1000884207D24FF0805009490860BFF34F8FBA
:102A2000BFF36F8F10BD0000340000202400002091
:102A300040000020500000203C00002080000020CA
:102A400004ED00E010B516E000F0CEF90C48C068C7
:102A5000C468201D00F060F90A480068401E09495A
:102A6000086009480068401E0749086000F0CEF978
:102A7000204600F00BF8044800680028E4D110BD9F
:102A8000F8000020340000203000002010B504467B
:102A9000206B00F0CBF9204600F0C8F910BD000013
:102AA0000A4A22F007000A4A10600022084B5A60C6
:102AB00040F6F872074B5A6000221A60014640F651
:102AC000F8724A601A460A60704700005001002000
:102AD000600000206800002000BFFFF7B3FF064839
:102AE00000680128F9D94FF0805004490860BFF30D
:102AF0004F8FBFF36F8FF0E78000002004ED00E000
:102B00002DE9FF5F80460F469146DDE90E6A109C75
:102B1000A9F10100216B01EB800B2BF0070B0025C5
:102B200007E0795D04F134004155785D00B902E0B9
:102B30006D1C102DF5D300BF002143200155052E3B
:102B400000D30426E66266640020A064201D00F025
:102B500004F904F1180000F000F92461C6F1050041
:102B6000A06164620020E06484F850004146584649
:102B7000039A00F0BFF82060BAF1000F01D0CAF844
:102B80000040BDE8FF9F000010B5002407E004EB03
:102B900084010F4A02EB810000F0D2F8641C052C7E
:102BA000F5D30C4800F0CCF80B4800F0C9F80B48FE
:102BB00000F0C6F80A4800F0C3F80A4800F0C0F870
:102BC00004480949086004480849086010BD00002D
:102BD000800000202001002034010020E4000020BB
:102BE000F80000200C010020280000202C0000200C
:102BF0000A490968096809B9012100E0002121B1E9
:102C00004FF0FF31064A116006E004490968C968BF
:102C1000C868034A4168116070470000280000201E
:102C20005400002000BFBF2080F31188BFF34F8FF6
:102C3000BFF36F8F00BF00BFFEE700002DE9F0413A
:102C400004464FF0000800F0CFF92648006820B98C
:102C5000FFF726FF01202349086044B1083404F03F
:102C6000070020B104F00700C0F108000444002C64
:102C700032D040F6F87084422ED21B4F3846056899
:102C800001E02F462D686868A04202D2286800281B
:102C9000F7D1164885421FD0386800F10808286827
:102CA00038606868001B102810D92E196868001B4E
:102CB00070606C6071680C4800E0006802685268DF
:102CC0008A42FAD302683260066000BF0849686829
:102CD0000968081A0649086000F096FA4046BDE8FF
:102CE000F0810000740000206000002068000020D7
:102CF00070000020001F4FF080730360001F21F060
:102D000001030360001F034B036014380260203886
:102D100070470000252C000801460A69D1E90130FE
:102D20009860D1E9010358605068884201D18868F1
:102D30005060002008611068401E106010687047E5
:102D400000F1080141604FF0FF31816000F108019E
:102D5000C16001610021016070470021016170477D
:102D600010B502460B685C1C0CB9106907E002F153
:102D7000080000E04068446824689C42FAD944682E
:102D80004C604C68A160886041600A611468641CF2
:102D9000146010BD42684A6093688B609368596004
:102DA0009160086103685B1C036070477CB5054651
:102DB00000240020012103468022CDE9001006A155
:102DC000084800F063F90446012C01D000BFFEE77B
:102DD000002000F071F87CBD544553545F5461737A
:102DE0006B000000F124000800BFBF2080F31188B1
:102DF000BFF34F8FBFF36F8F00BF03480068401CC5
:102E0000014908607047000078000020064800680B
:102E1000401E054908600846006820B9002080F37C
:102E2000118800BF00BF70477800002070B50646CB
:102E30003546B6B1083D2C4600F0D6F86168094821
:102E400000E00068026852688A42FAD30268226091
:102E5000046005496068096808440349086000F097
:102E6000D3F970BD600000207000002000204FF0FA
:102E7000E0210861886102484861072008617047C5
:102E80003F19010070B50446002544B100F0ACF8CC
:102E900000212046FFF730FD00F0B6F905463DB9A8
:102EA0004FF0805003490860BFF34F8FBFF36F8F1F
:102EB00070BD000004ED00E070B50546FFF794FF1B
:102EC00015B92748006800E028460446201DFFF792
:102ED00023FF78B9E06A00EB8000224951F8200016
:102EE00040B994F82C10012088401F49096881439B
:102EF0001D480160A06A18B104F11800FFF70CFF2B
:102F00001A480068401C1949086015480068844246
:102F100009D1211D1648FFF73DFF16480068401CE7
:102F20001449086009E014480068401E124908600E
:102F30002046FFF7ABFDFFF75BFEFFF767FF0F488B
:102F4000006858B106480068844207D14FF08050AD
:102F50000B490860BFF34F8FBFF36F8F70BD000048
:102F600024000020800000203C00002050000020B1
:102F7000F800002030000020340000204000002035
:102F800004ED00E01CB5114800210B468022CDE97C
:102F900000100FA1104800F079F80446012C14D15C
:102FA00000BFBF2080F31188BFF34F8FBFF36F8F37
:102FB00000BF4FF0FF300949086001200849086050
:102FC00000200849086000F047F81CBD58000020A8
:102FD00049444C4500000000D92A00085400002054
:102FE000400000203800002002480068401C0149D1
:102FF000086070475C0000201248006818B101208A
:10300000114908601DE000200F4908600F48006862
:10301000B0FA80F0C0F11F0101EB81020C4B03EB11
:10302000820042685268426000F10802436893429D
:1030300002D14268526842604268D268054B1A6009
:1030400000BF70475C000020480000203C000020CA
:10305000800000202400002010B50A48006840F4D9
:103060007F00084908600846006840F07F4008601B
:10307000FFF7FCFE002004490860FDF71FF900205F
:1030800010BD000020ED00E0780000202DE9FF4F8A
:1030900085B0804689461746DDE912ABB800FFF7D8
:1030A000CDFD064656B15420FFF7C8FD04460CB1CD
:1030B000266304E03046FFF7B9FE00E000247CB14F
:1030C0000020CDE900ABCDE902403A4649464046F2
:1030D000089BFFF715FD2046FFF75AFC012501E08C
:1030E0004FF0FF35284609B0BDE8F08F2DE9F041DB
:1030F00000273A480068002863D139480068451C19
:10310000374805608DB93748D0F8008036480068E8
:10311000344908603448C0F8008034480068401CD6
:1031200032490860FFF764FD00BF314800688542FE
:103130003BD300BF2B480068006808B9012000E0BD
:10314000002020B14FF0FF30294908602CE02548CD
:103150000068C068C4686668B54202D22448066048
:1031600022E0201DFFF7D8FDA06A18B104F1180075
:10317000FFF7D2FD94F82C10012088401D49096802
:1031800008431C490860E16A01EB81011A4A02EB1D
:103190008100211DFFF7FEFD1849E06A0968C96A30
:1031A0008842C7D30127C5E700BF14480068C06A3A
:1031B00000EB8000104951F82000012800D90127B8
:1031C00004E00F480068401C0D4908600D48006885
:1031D00000B101273846BDE8F08100005C00002006
:1031E00038000020280000202C0000204C00002087
:1031F000540000203C00002080000020240000201B
:10320000440000204800002070B500240026FFF78D
:10321000EBFD2E480068401E2C49086008460068F7
:1032200000284FD12A48006800284BD024E02948C4
:10323000C068C46804F11800FFF76EFD201DFFF799
:103240006BFD94F82C10012088402349096808433D
:1032500021490860E16A01EB8101204A02EB81000B
:10326000211DFFF797FD1E49E06A0968C96A884277
:1032700002D301201B4908601648006808B90120E4
:1032800000E000200028D2D00CB1FFF7B1FC1648B6
:10329000056865B100BFFFF729FF10B10120114992
:1032A00008606D1E002DF6D100200F4908600D4802
:1032B000006838B1012630070C490860BFF34F8F12
:1032C000BFF36F8FFFF7A2FD304670BD5C0000209A
:1032D00034000020E40000203C000020800000209A
:1032E00024000020480000204400002004ED00E0FD
:1032F00010B500290AD00878002807D0054878447E
:10330000FDF718FF002801D0002010BD02487844C6
:1033100010BD0000720100006A01000010B5002914
:103320000AD00878002807D005487844FDF702FF46
:10333000002801D0002010BD0248784410BD0000D4
:10334000620100005A010000FDF785BC0014014035
:1033500004000000001401400800000000140140B7
:103360001000000000140140800000000030014007
:10337000230000000010000000000000000000001A
:10338000303132333435363738394142434445469B
:103390004030580030313233343536373839616295
:1033A0006364656640307800040000080000000097
:1033B00000000002000100001000000002400000B8
:1033C000000000A00000000005400000000000C850
:1033D000000000000C4000000000409C00000000C5
:1033E000194000000020BCBE000000003440000076
:1033F000BFC91B8E00000004B5400000504BCFD069
:103400006607E2CF010000006C4100003E8251AA35
:10341000DFEEA73401000000D9420000DCB5A0E2D5
:103420003A301F97FFFFFFFFB4450000FD25A0C8FD
:10343000E9A3C14FFFFFFFFFFF3F00000000008036
:1034400000000000FF3F00000000008000000000BE
:103450009C35000800000020800000008C0100085E
:103460001C3600088000002028170000A801000872
:103470001C00000043000000F8FFFFFF0C000000EC
:103480000E0000000F0000002E00000010010000E0
:1034900043000000F8FFFFFF004040404040404034
:1034A0004040414141414140404040404040404017
:1034B00040404040404040404005020202020202BB
:1034C000020202020202020202202020202020200A
:1034D000202020020202020202029090909090901E
:1034E00010101010101010101010101010101010DC
:1034F0001010101002020202020288888888888850
:10350000080808080808080808080808080808083B
:103510000808080802020202400000000000000043
:10352000000000000000000000000000000000009B
:10353000000000000000000000000000000000008B
:10354000000000000000000000000000000000007B
:10355000000000000000000000000000000000006B
:10356000000000000000000000000000000000005B
:10357000000000000000000000000000000000004B
:10358000000000000000000000000000000000003B
:10359000000000000000000000000000000000002B
:1035A0009D2000088D200008AD20000800000000CC
:1035B00001020304010203040607080902040608C5
:1035C00000000000000000000000000000000000FB
:1035D00000000000000000000000000000000000EB
:1035E00000000000000000000000000000000000DB
:1035F00000000000000000000000000000000000CB
:10360000000000000000000000000000F80F0000B3
:0C36100000000000AAAAAAAA0000000006
:04000005080001519D
:00000001FF
